{"abi":[{"inputs":[{"internalType":"contract Token","name":"_AtokenContract","type":"address"},{"internalType":"contract Token","name":"_BtokenContract","type":"address"},{"internalType":"uint256","name":"_tokenPrice","type":"uint256"},{"internalType":"uint256","name":"_state","type":"uint256"}],"stateMutability":"nonpayable","type":"constructor","name":"constructor"},{"anonymous":false,"inputs":[{"indexed":true,"internalType":"bytes32","name":"id","type":"bytes32"}],"name":"ChainlinkCancelled","type":"event"},{"anonymous":false,"inputs":[{"indexed":true,"internalType":"bytes32","name":"id","type":"bytes32"}],"name":"ChainlinkFulfilled","type":"event"},{"anonymous":false,"inputs":[{"indexed":true,"internalType":"bytes32","name":"id","type":"bytes32"}],"name":"ChainlinkRequested","type":"event"},{"anonymous":false,"inputs":[{"indexed":true,"internalType":"address","name":"previousOwner","type":"address"},{"indexed":true,"internalType":"address","name":"newOwner","type":"address"}],"name":"OwnershipTransferred","type":"event"},{"anonymous":false,"inputs":[{"indexed":true,"internalType":"bytes32","name":"requestId","type":"bytes32"},{"indexed":true,"internalType":"uint256","name":"state","type":"uint256"}],"name":"RequestStateFulfilled","type":"event"},{"anonymous":false,"inputs":[{"indexed":false,"internalType":"address","name":"_buyer","type":"address"},{"indexed":false,"internalType":"uint256","name":"_amount","type":"uint256"}],"name":"Sell","type":"event"},{"inputs":[],"name":"AtokenContract","outputs":[{"internalType":"contract Token","name":"","type":"address"}],"stateMutability":"view","type":"function"},{"inputs":[],"name":"BtokenContract","outputs":[{"internalType":"contract Token","name":"","type":"address"}],"stateMutability":"view","type":"function"},{"inputs":[{"internalType":"uint256","name":"_numberOfTokens","type":"uint256"}],"name":"buyTokens","outputs":[],"stateMutability":"payable","type":"function"},{"inputs":[{"internalType":"bytes32","name":"_requestId","type":"bytes32"},{"internalType":"uint256","name":"_payment","type":"uint256"},{"internalType":"bytes4","name":"_callbackFunctionId","type":"bytes4"},{"internalType":"uint256","name":"_expiration","type":"uint256"}],"name":"cancelRequest","outputs":[],"stateMutability":"nonpayable","type":"function"},{"inputs":[{"internalType":"bytes32","name":"_requestId","type":"bytes32"},{"internalType":"uint256","name":"_state","type":"uint256"}],"name":"fulfillState","outputs":[],"stateMutability":"nonpayable","type":"function"},{"inputs":[],"name":"isOwner","outputs":[{"internalType":"bool","name":"","type":"bool"}],"stateMutability":"view","type":"function"},{"inputs":[],"name":"owner","outputs":[{"internalType":"address","name":"","type":"address"}],"stateMutability":"view","type":"function"},{"inputs":[{"internalType":"contract Token","name":"_token","type":"address"},{"internalType":"uint256","name":"_numberOfTokens","type":"uint256"}],"name":"redeem","outputs":[],"stateMutability":"payable","type":"function"},{"inputs":[{"internalType":"address","name":"_oracle","type":"address"},{"internalType":"string","name":"_jobId","type":"string"}],"name":"requestState","outputs":[],"stateMutability":"nonpayable","type":"function"},{"inputs":[],"name":"state","outputs":[{"internalType":"uint256","name":"","type":"uint256"}],"stateMutability":"view","type":"function"},{"inputs":[],"name":"tokenPrice","outputs":[{"internalType":"uint256","name":"","type":"uint256"}],"stateMutability":"view","type":"function"},{"inputs":[],"name":"tokensSold","outputs":[{"internalType":"uint256","name":"","type":"uint256"}],"stateMutability":"view","type":"function"},{"inputs":[{"internalType":"address","name":"newOwner","type":"address"}],"name":"transferOwnership","outputs":[],"stateMutability":"nonpayable","type":"function"},{"inputs":[],"name":"trigger_active","outputs":[],"stateMutability":"nonpayable","type":"function"},{"inputs":[],"name":"trigger_timeout","outputs":[],"stateMutability":"nonpayable","type":"function"},{"inputs":[],"name":"trigger_triggered","outputs":[],"stateMutability":"nonpayable","type":"function"}],"bytecode":"6080604052600160045534801561001557600080fd5b506040516117433803806117438339818101604052608081101561003857600080fd5b5080516020820151604080840151606090940151600680546001600160a01b03191633179081905591519394929390916001600160a01b0316906000907f8be0079c531659141344cd1fd0a4f28419497f9722a3daafe3b4186f6b6457e0908290a36100a26100eb565b600780546001600160a01b03199081163317909155600880546001600160a01b039687169083161790556009805494909516931692909217909255600a91909155600c55610190565b61016c73c89bd4e1632d3a43cb03aaad5262cbe4038bc5716001600160a01b03166338cc48316040518163ffffffff1660e01b815260040160206040518083038186803b15801561013b57600080fd5b505afa15801561014f573d6000803e3d6000fd5b505050506040513d602081101561016557600080fd5b505161016e565b565b600280546001600160a01b0319166001600160a01b0392909216919091179055565b6115a48061019f6000396000f3fe6080604052600436106100f35760003560e01c80638f32d59b1161008a578063c1fa159211610059578063c1fa159214610320578063c650329c14610335578063ec65d0f81461034a578063f2fde38b14610390576100f3565b80638f32d59b1461020a57806397a701c6146102335780639c577f1114610248578063c19d93fb1461030b576100f3565b80635e5c3ba9116100c65780635e5c3ba91461019b5780635ecf31a2146101b05780637ff9b596146101e05780638da5cb5b146101f5576100f3565b80631e9a6950146100f85780633610724e1461012657806350565a3314610143578063518ab2a814610174575b600080fd5b6101246004803603604081101561010e57600080fd5b506001600160a01b0381351690602001356103c3565b005b6101246004803603602081101561013c57600080fd5b5035610430565b34801561014f57600080fd5b506101586105ac565b604080516001600160a01b039092168252519081900360200190f35b34801561018057600080fd5b506101896105bb565b60408051918252519081900360200190f35b3480156101a757600080fd5b506101246105c1565b3480156101bc57600080fd5b50610124600480360360408110156101d357600080fd5b50803590602001356105df565b3480156101ec57600080fd5b506101896106ad565b34801561020157600080fd5b506101586106b3565b34801561021657600080fd5b5061021f6106c2565b604080519115158252519081900360200190f35b34801561023f57600080fd5b506101586106d3565b34801561025457600080fd5b506101246004803603604081101561026b57600080fd5b6001600160a01b03823516919081019060408101602082013564010000000081111561029657600080fd5b8201836020820111156102a857600080fd5b803590602001918460018302840111640100000000831117156102ca57600080fd5b91908080601f0160208091040260200160405190810160405280939291908181526020018383808284376000920191909152509295506106e2945050505050565b34801561031757600080fd5b506101896107ad565b34801561032c57600080fd5b506101246107b3565b34801561034157600080fd5b506101246107d1565b34801561035657600080fd5b506101246004803603608081101561036d57600080fd5b508035906020810135906001600160e01b031960408201351690606001356107ef565b34801561039c57600080fd5b50610124600480360360208110156103b357600080fd5b50356001600160a01b0316610854565b600c546104225761041d734712020ca7e184c545fd2483696c9dc36cb7c36a6040518060400160405280602081526020017f63613064383634323438393034363666383536646533653836383038376638318152506106e2565b61042c565b61042c82826108b9565b5050565b600c541561043d57600080fd5b61044981600a54610c2c565b341461045457600080fd5b600854604080516340c10f1960e01b81523360048201526024810184905290516001600160a01b03909216916340c10f19916044808201926020929091908290030181600087803b1580156104a857600080fd5b505af11580156104bc573d6000803e3d6000fd5b505050506040513d60208110156104d257600080fd5b50516104dd57600080fd5b600954604080516340c10f1960e01b81523360048201526024810184905290516001600160a01b03909216916340c10f19916044808201926020929091908290030181600087803b15801561053157600080fd5b505af1158015610545573d6000803e3d6000fd5b505050506040513d602081101561055b57600080fd5b505161056657600080fd5b600b805482019055604080513381526020810183905281517f5e5e995ce3133561afceaa51a9a154d5db228cd7525d34df5185582c18d3df09929181900390910190a150565b6008546001600160a01b031681565b600b5481565b6007546001600160a01b031633146105d857600080fd5b6000600c55565b60008281526005602052604090205482906001600160a01b031633146106365760405162461bcd60e51b81526004018080602001828103825260288152602001806115006028913960400191505060405180910390fd5b60008181526005602052604080822080546001600160a01b03191690555182917f7cc135e0cebb02c3480ae5d74d377283180a2601f8f644edf7987b009316c63a91a2604051829084907f2306cfe10028ae6fa38228d0dc51347d6f9e7b08cd23762870b3f582cb385a4390600090a350600c5550565b600a5481565b6006546001600160a01b031690565b6006546001600160a01b0316331490565b6009546001600160a01b031681565b6106ea611467565b6107046106f683610c53565b30632f6798d160e11b610c75565b90506107466040518060400160405280600381526020016219d95d60ea1b81525060405180608001604052806047815260200161152860479139839190610c9a565b610794604051806040016040528060048152602001630e0c2e8d60e31b81525060405180604001604052806005815260200164737461746560d81b81525083610c9a9092919063ffffffff16565b6107a78382670de0b6b3a7640000610cbd565b50505050565b600c5481565b6007546001600160a01b031633146107ca57600080fd5b6002600c55565b6007546001600160a01b031633146107e857600080fd5b6001600c55565b6107f76106c2565b610848576040805162461bcd60e51b815260206004820181905260248201527f4f776e61626c653a2063616c6c6572206973206e6f7420746865206f776e6572604482015290519081900360640190fd5b6107a784848484610e8b565b61085c6106c2565b6108ad576040805162461bcd60e51b815260206004820181905260248201527f4f776e61626c653a2063616c6c6572206973206e6f7420746865206f776e6572604482015290519081900360640190fd5b6108b681610f63565b50565b600c5460011415610a8e576008546001600160a01b0383811691161461091f576040805162461bcd60e51b81526020600482015260166024820152750a8d0d2e640c6ded2dc40d0c2e640dcde40eedee4e8d60531b604482015290519081900360640190fd5b600854604080516370a0823160e01b8152336004820152905183926001600160a01b0316916370a08231916024808301926020929190829003018186803b15801561096957600080fd5b505afa15801561097d573d6000803e3d6000fd5b505050506040513d602081101561099357600080fd5b505110156109a057600080fd5b6109ac81600a54610c2c565b4710156109b857600080fd5b60085460408051631b4e583d60e31b81523360048201523060248201526044810184905290516001600160a01b039092169163da72c1e8916064808201926020929091908290030181600087803b158015610a1257600080fd5b505af1158015610a26573d6000803e3d6000fd5b505050506040513d6020811015610a3c57600080fd5b5051610a4757600080fd5b336001600160a01b03166108fc610a6083600a54610c2c565b6040518115909202916000818181858888f19350505050158015610a88573d6000803e3d6000fd5b5061042c565b600c5460021415610be7576009546001600160a01b03838116911614610af4576040805162461bcd60e51b81526020600482015260166024820152750a8d0d2e640c6ded2dc40d0c2e640dcde40eedee4e8d60531b604482015290519081900360640190fd5b600954604080516370a0823160e01b8152336004820152905183926001600160a01b0316916370a08231916024808301926020929190829003018186803b158015610b3e57600080fd5b505afa158015610b52573d6000803e3d6000fd5b505050506040513d6020811015610b6857600080fd5b50511015610b7557600080fd5b610b8181600a54610c2c565b471015610b8d57600080fd5b60095460408051631b4e583d60e31b81523360048201523060248201526044810184905290516001600160a01b039092169163da72c1e8916064808201926020929091908290030181600087803b158015610a1257600080fd5b6040805162461bcd60e51b8152602060048201526015602482015274636f6e7472616374207374696c6c2061637469766560581b604482015290519081900360640190fd5b818102821580610c44575081838281610c4157fe5b04145b610c4d57600080fd5b92915050565b80516000908290610c68575060009050610c70565b505060208101515b919050565b610c7d611467565b610c85611467565b610c9181868686611004565b95945050505050565b6080830151610ca99083611041565b6080830151610cb89082611041565b505050565b6004546040805130606090811b60208084019190915260348084018690528451808503909101815260549093018452825192810192909220908601939093526000838152600590915281812080546001600160a01b0319166001600160a01b038816179055905182917fb5e6e01e79f91267dc17b4e6314d5d4d03593d2ceee0fbb452b750bd70ea5af991a26002546001600160a01b0316634000aea08584610d6587611058565b6040518463ffffffff1660e01b815260040180846001600160a01b0316815260200183815260200180602001828103825283818151815260200191508051906020019080838360005b83811015610dc6578181015183820152602001610dae565b50505050905090810190601f168015610df35780820380516001836020036101000a031916815260200191505b50945050505050602060405180830381600087803b158015610e1457600080fd5b505af1158015610e28573d6000803e3d6000fd5b505050506040513d6020811015610e3e57600080fd5b5051610e7b5760405162461bcd60e51b81526004018080602001828103825260238152602001806114dd6023913960400191505060405180910390fd5b6004805460010190559392505050565b60008481526005602052604080822080546001600160a01b0319811690915590516001600160a01b039091169186917fe1fe3afa0f7f761ff0a8b89086790efd5140d2907ebd5b7ff6bfcb5e075fd4c59190a260408051636ee4d55360e01b815260048101879052602481018690526001600160e01b0319851660448201526064810184905290516001600160a01b03831691636ee4d55391608480830192600092919082900301818387803b158015610f4457600080fd5b505af1158015610f58573d6000803e3d6000fd5b505050505050505050565b6001600160a01b038116610fa85760405162461bcd60e51b81526004018080602001828103825260268152602001806114b76026913960400191505060405180910390fd5b6006546040516001600160a01b038084169216907f8be0079c531659141344cd1fd0a4f28419497f9722a3daafe3b4186f6b6457e090600090a3600680546001600160a01b0319166001600160a01b0392909216919091179055565b61100c611467565b61101c856080015161010061117c565b50509183526001600160a01b031660208301526001600160e01b031916604082015290565b61104e82600383516111b6565b610cb8828261128a565b6060634042994660e01b6000808460000151856020015186604001518760600151600189608001516000015160405160240180896001600160a01b03168152602001888152602001878152602001866001600160a01b03168152602001856001600160e01b031916815260200184815260200183815260200180602001828103825283818151815260200191508051906020019080838360005b8381101561110a5781810151838201526020016110f2565b50505050905090810190601f1680156111375780820380516001836020036101000a031916815260200191505b5060408051601f198184030181529190526020810180516001600160e01b03166001600160e01b0319909d169c909c17909b5250989950505050505050505050919050565b61118461149c565b60208206156111995760208206602003820191505b506020828101829052604080518085526000815290920101905290565b601781116111d7576111d18360e0600585901b1683176112ab565b50610cb8565b60ff8111611201576111f4836018611fe0600586901b16176112ab565b506111d1838260016112c3565b61ffff811161122c5761121f836019611fe0600586901b16176112ab565b506111d1838260026112c3565b63ffffffff81116112595761124c83601a611fe0600586901b16176112ab565b506111d1838260046112c3565b67ffffffffffffffff8111610cb85761127d83601b611fe0600586901b16176112ab565b506107a7838260086112c3565b61129261149c565b6112a4838460000151518485516112e4565b9392505050565b6112b361149c565b6112a48384600001515184611390565b6112cb61149c565b6112dc8485600001515185856113db565b949350505050565b6112ec61149c565b82518211156112fa57600080fd5b84602001518285011115611324576113248561131c8760200151878601611439565b600202611450565b6000808651805187602083010193508088870111156113435787860182525b505050602084015b6020841061136a5780518252601f19909301926020918201910161134b565b51815160001960208690036101000a019081169019919091161790525083949350505050565b61139861149c565b836020015183106113b4576113b4848560200151600202611450565b8351805160208583010184815350808514156113d1576001810182525b5093949350505050565b6113e361149c565b846020015184830111156114005761140085858401600202611450565b60006001836101000a03905085518386820101858319825116178152508051848701111561142e5783860181525b509495945050505050565b60008183111561144a575081610c4d565b50919050565b815161145c838361117c565b506107a7838261128a565b6040805160a08101825260008082526020820181905291810182905260608101919091526080810161149761149c565b905290565b60405180604001604052806060815260200160008152509056fe4f776e61626c653a206e6577206f776e657220697320746865207a65726f2061646472657373756e61626c6520746f207472616e73666572416e6443616c6c20746f206f7261636c65536f75726365206d75737420626520746865206f7261636c65206f6620746865207265717565737468747470733a2f2f6931696869796a7075382e657865637574652d6170692e75732d776573742d312e616d617a6f6e6177732e636f6d2f64656661756c742f746573745f617069a2646970667358221220777fdc796f1f5016976a3a7c0c54df4b0a9e2619a05cad750ed12a4ba0b71e2564736f6c634300060c0033","bytecodeSha1":"a90b688b353637dae62041777805fa8e86c98741","compiler":{"evm_version":"istanbul","optimizer":{"enabled":true,"runs":200},"version":"0.6.12+commit.27d51765"},"contractName":"Manager","language":"Solidity","natspec":{"kind":"dev","methods":{"buyTokens(uint256)":{"notice":"Users can buy an equal amount of A and B tokens","params":{"_numberOfTokens":"The number of A and B tokens requested"}},"isOwner()":{"details":"Returns true if the caller is the current owner."},"owner()":{"details":"Returns the address of the current owner."},"redeem(address,uint256)":{"notice":"Allows users to exchange either A or B tokens for ETH","params":{"_numberOfTokens":"The number of A or B tokens to be redeemed ","_token":"The type of token being redeemed (must be A or B)"}},"transferOwnership(address)":{"details":"Transfers ownership of the contract to a new account (`newOwner`). Can only be called by the current owner."},"trigger_active()":{"notice":"admin can change the contract state to \"active\""},"trigger_timeout()":{"notice":"admin can change the contract state to \"timedout\""},"trigger_triggered()":{"notice":"admin can change the contract state to \"triggered\""}},"version":1},"opcodes":"PUSH1 0x80 PUSH1 0x40 MSTORE PUSH1 0x4 CALLDATASIZE LT PUSH2 0xF3 JUMPI PUSH1 0x0 CALLDATALOAD PUSH1 0xE0 SHR DUP1 PUSH4 0x8F32D59B GT PUSH2 0x8A JUMPI DUP1 PUSH4 0xC1FA1592 GT PUSH2 0x59 JUMPI DUP1 PUSH4 0xC1FA1592 EQ PUSH2 0x320 JUMPI DUP1 PUSH4 0xC650329C EQ PUSH2 0x335 JUMPI DUP1 PUSH4 0xEC65D0F8 EQ PUSH2 0x34A JUMPI DUP1 PUSH4 0xF2FDE38B EQ PUSH2 0x390 JUMPI PUSH2 0xF3 JUMP JUMPDEST DUP1 PUSH4 0x8F32D59B EQ PUSH2 0x20A JUMPI DUP1 PUSH4 0x97A701C6 EQ PUSH2 0x233 JUMPI DUP1 PUSH4 0x9C577F11 EQ PUSH2 0x248 JUMPI DUP1 PUSH4 0xC19D93FB EQ PUSH2 0x30B JUMPI PUSH2 0xF3 JUMP JUMPDEST DUP1 PUSH4 0x5E5C3BA9 GT PUSH2 0xC6 JUMPI DUP1 PUSH4 0x5E5C3BA9 EQ PUSH2 0x19B JUMPI DUP1 PUSH4 0x5ECF31A2 EQ PUSH2 0x1B0 JUMPI DUP1 PUSH4 0x7FF9B596 EQ PUSH2 0x1E0 JUMPI DUP1 PUSH4 0x8DA5CB5B EQ PUSH2 0x1F5 JUMPI PUSH2 0xF3 JUMP JUMPDEST DUP1 PUSH4 0x1E9A6950 EQ PUSH2 0xF8 JUMPI DUP1 PUSH4 0x3610724E EQ PUSH2 0x126 JUMPI DUP1 PUSH4 0x50565A33 EQ PUSH2 0x143 JUMPI DUP1 PUSH4 0x518AB2A8 EQ PUSH2 0x174 JUMPI JUMPDEST PUSH1 0x0 DUP1 REVERT JUMPDEST PUSH2 0x124 PUSH1 0x4 DUP1 CALLDATASIZE SUB PUSH1 0x40 DUP2 LT ISZERO PUSH2 0x10E JUMPI PUSH1 0x0 DUP1 REVERT JUMPDEST POP PUSH1 0x1 PUSH1 0x1 PUSH1 0xA0 SHL SUB DUP2 CALLDATALOAD AND SWAP1 PUSH1 0x20 ADD CALLDATALOAD PUSH2 0x3C3 JUMP JUMPDEST STOP JUMPDEST PUSH2 0x124 PUSH1 0x4 DUP1 CALLDATASIZE SUB PUSH1 0x20 DUP2 LT ISZERO PUSH2 0x13C JUMPI PUSH1 0x0 DUP1 REVERT JUMPDEST POP CALLDATALOAD PUSH2 0x430 JUMP JUMPDEST CALLVALUE DUP1 ISZERO PUSH2 0x14F JUMPI PUSH1 0x0 DUP1 REVERT JUMPDEST POP PUSH2 0x158 PUSH2 0x5AC JUMP JUMPDEST PUSH1 0x40 DUP1 MLOAD PUSH1 0x1 PUSH1 0x1 PUSH1 0xA0 SHL SUB SWAP1 SWAP3 AND DUP3 MSTORE MLOAD SWAP1 DUP2 SWAP1 SUB PUSH1 0x20 ADD SWAP1 RETURN JUMPDEST CALLVALUE DUP1 ISZERO PUSH2 0x180 JUMPI PUSH1 0x0 DUP1 REVERT JUMPDEST POP PUSH2 0x189 PUSH2 0x5BB JUMP JUMPDEST PUSH1 0x40 DUP1 MLOAD SWAP2 DUP3 MSTORE MLOAD SWAP1 DUP2 SWAP1 SUB PUSH1 0x20 ADD SWAP1 RETURN JUMPDEST CALLVALUE DUP1 ISZERO PUSH2 0x1A7 JUMPI PUSH1 0x0 DUP1 REVERT JUMPDEST POP PUSH2 0x124 PUSH2 0x5C1 JUMP JUMPDEST CALLVALUE DUP1 ISZERO PUSH2 0x1BC JUMPI PUSH1 0x0 DUP1 REVERT JUMPDEST POP PUSH2 0x124 PUSH1 0x4 DUP1 CALLDATASIZE SUB PUSH1 0x40 DUP2 LT ISZERO PUSH2 0x1D3 JUMPI PUSH1 0x0 DUP1 REVERT JUMPDEST POP DUP1 CALLDATALOAD SWAP1 PUSH1 0x20 ADD CALLDATALOAD PUSH2 0x5DF JUMP JUMPDEST CALLVALUE DUP1 ISZERO PUSH2 0x1EC JUMPI PUSH1 0x0 DUP1 REVERT JUMPDEST POP PUSH2 0x189 PUSH2 0x6AD JUMP JUMPDEST CALLVALUE DUP1 ISZERO PUSH2 0x201 JUMPI PUSH1 0x0 DUP1 REVERT JUMPDEST POP PUSH2 0x158 PUSH2 0x6B3 JUMP JUMPDEST CALLVALUE DUP1 ISZERO PUSH2 0x216 JUMPI PUSH1 0x0 DUP1 REVERT JUMPDEST POP PUSH2 0x21F PUSH2 0x6C2 JUMP JUMPDEST PUSH1 0x40 DUP1 MLOAD SWAP2 ISZERO ISZERO DUP3 MSTORE MLOAD SWAP1 DUP2 SWAP1 SUB PUSH1 0x20 ADD SWAP1 RETURN JUMPDEST CALLVALUE DUP1 ISZERO PUSH2 0x23F JUMPI PUSH1 0x0 DUP1 REVERT JUMPDEST POP PUSH2 0x158 PUSH2 0x6D3 JUMP JUMPDEST CALLVALUE DUP1 ISZERO PUSH2 0x254 JUMPI PUSH1 0x0 DUP1 REVERT JUMPDEST POP PUSH2 0x124 PUSH1 0x4 DUP1 CALLDATASIZE SUB PUSH1 0x40 DUP2 LT ISZERO PUSH2 0x26B JUMPI PUSH1 0x0 DUP1 REVERT JUMPDEST PUSH1 0x1 PUSH1 0x1 PUSH1 0xA0 SHL SUB DUP3 CALLDATALOAD AND SWAP2 SWAP1 DUP2 ADD SWAP1 PUSH1 0x40 DUP2 ADD PUSH1 0x20 DUP3 ADD CALLDATALOAD PUSH5 0x100000000 DUP2 GT ISZERO PUSH2 0x296 JUMPI PUSH1 0x0 DUP1 REVERT JUMPDEST DUP3 ADD DUP4 PUSH1 0x20 DUP3 ADD GT ISZERO PUSH2 0x2A8 JUMPI PUSH1 0x0 DUP1 REVERT JUMPDEST DUP1 CALLDATALOAD SWAP1 PUSH1 0x20 ADD SWAP2 DUP5 PUSH1 0x1 DUP4 MUL DUP5 ADD GT PUSH5 0x100000000 DUP4 GT OR ISZERO PUSH2 0x2CA JUMPI PUSH1 0x0 DUP1 REVERT JUMPDEST SWAP2 SWAP1 DUP1 DUP1 PUSH1 0x1F ADD PUSH1 0x20 DUP1 SWAP2 DIV MUL PUSH1 0x20 ADD PUSH1 0x40 MLOAD SWAP1 DUP2 ADD PUSH1 0x40 MSTORE DUP1 SWAP4 SWAP3 SWAP2 SWAP1 DUP2 DUP2 MSTORE PUSH1 0x20 ADD DUP4 DUP4 DUP1 DUP3 DUP5 CALLDATACOPY PUSH1 0x0 SWAP3 ADD SWAP2 SWAP1 SWAP2 MSTORE POP SWAP3 SWAP6 POP PUSH2 0x6E2 SWAP5 POP POP POP POP POP JUMP JUMPDEST CALLVALUE DUP1 ISZERO PUSH2 0x317 JUMPI PUSH1 0x0 DUP1 REVERT JUMPDEST POP PUSH2 0x189 PUSH2 0x7AD JUMP JUMPDEST CALLVALUE DUP1 ISZERO PUSH2 0x32C JUMPI PUSH1 0x0 DUP1 REVERT JUMPDEST POP PUSH2 0x124 PUSH2 0x7B3 JUMP JUMPDEST CALLVALUE DUP1 ISZERO PUSH2 0x341 JUMPI PUSH1 0x0 DUP1 REVERT JUMPDEST POP PUSH2 0x124 PUSH2 0x7D1 JUMP JUMPDEST CALLVALUE DUP1 ISZERO PUSH2 0x356 JUMPI PUSH1 0x0 DUP1 REVERT JUMPDEST POP PUSH2 0x124 PUSH1 0x4 DUP1 CALLDATASIZE SUB PUSH1 0x80 DUP2 LT ISZERO PUSH2 0x36D JUMPI PUSH1 0x0 DUP1 REVERT JUMPDEST POP DUP1 CALLDATALOAD SWAP1 PUSH1 0x20 DUP2 ADD CALLDATALOAD SWAP1 PUSH1 0x1 PUSH1 0x1 PUSH1 0xE0 SHL SUB NOT PUSH1 0x40 DUP3 ADD CALLDATALOAD AND SWAP1 PUSH1 0x60 ADD CALLDATALOAD PUSH2 0x7EF JUMP JUMPDEST CALLVALUE DUP1 ISZERO PUSH2 0x39C JUMPI PUSH1 0x0 DUP1 REVERT JUMPDEST POP PUSH2 0x124 PUSH1 0x4 DUP1 CALLDATASIZE SUB PUSH1 0x20 DUP2 LT ISZERO PUSH2 0x3B3 JUMPI PUSH1 0x0 DUP1 REVERT JUMPDEST POP CALLDATALOAD PUSH1 0x1 PUSH1 0x1 PUSH1 0xA0 SHL SUB AND PUSH2 0x854 JUMP JUMPDEST PUSH1 0xC SLOAD PUSH2 0x422 JUMPI PUSH2 0x41D PUSH20 0x4712020CA7E184C545FD2483696C9DC36CB7C36A PUSH1 0x40 MLOAD DUP1 PUSH1 0x40 ADD PUSH1 0x40 MSTORE DUP1 PUSH1 0x20 DUP2 MSTORE PUSH1 0x20 ADD PUSH32 0x6361306438363432343839303436366638353664653365383638303837663831 DUP2 MSTORE POP PUSH2 0x6E2 JUMP JUMPDEST PUSH2 0x42C JUMP JUMPDEST PUSH2 0x42C DUP3 DUP3 PUSH2 0x8B9 JUMP JUMPDEST POP POP JUMP JUMPDEST PUSH1 0xC SLOAD ISZERO PUSH2 0x43D JUMPI PUSH1 0x0 DUP1 REVERT JUMPDEST PUSH2 0x449 DUP2 PUSH1 0xA SLOAD PUSH2 0xC2C JUMP JUMPDEST CALLVALUE EQ PUSH2 0x454 JUMPI PUSH1 0x0 DUP1 REVERT JUMPDEST PUSH1 0x8 SLOAD PUSH1 0x40 DUP1 MLOAD PUSH4 0x40C10F19 PUSH1 0xE0 SHL DUP2 MSTORE CALLER PUSH1 0x4 DUP3 ADD MSTORE PUSH1 0x24 DUP2 ADD DUP5 SWAP1 MSTORE SWAP1 MLOAD PUSH1 0x1 PUSH1 0x1 PUSH1 0xA0 SHL SUB SWAP1 SWAP3 AND SWAP2 PUSH4 0x40C10F19 SWAP2 PUSH1 0x44 DUP1 DUP3 ADD SWAP3 PUSH1 0x20 SWAP3 SWAP1 SWAP2 SWAP1 DUP3 SWAP1 SUB ADD DUP2 PUSH1 0x0 DUP8 DUP1 EXTCODESIZE ISZERO DUP1 ISZERO PUSH2 0x4A8 JUMPI PUSH1 0x0 DUP1 REVERT JUMPDEST POP GAS CALL ISZERO DUP1 ISZERO PUSH2 0x4BC JUMPI RETURNDATASIZE PUSH1 0x0 DUP1 RETURNDATACOPY RETURNDATASIZE PUSH1 0x0 REVERT JUMPDEST POP POP POP POP PUSH1 0x40 MLOAD RETURNDATASIZE PUSH1 0x20 DUP2 LT ISZERO PUSH2 0x4D2 JUMPI PUSH1 0x0 DUP1 REVERT JUMPDEST POP MLOAD PUSH2 0x4DD JUMPI PUSH1 0x0 DUP1 REVERT JUMPDEST PUSH1 0x9 SLOAD PUSH1 0x40 DUP1 MLOAD PUSH4 0x40C10F19 PUSH1 0xE0 SHL DUP2 MSTORE CALLER PUSH1 0x4 DUP3 ADD MSTORE PUSH1 0x24 DUP2 ADD DUP5 SWAP1 MSTORE SWAP1 MLOAD PUSH1 0x1 PUSH1 0x1 PUSH1 0xA0 SHL SUB SWAP1 SWAP3 AND SWAP2 PUSH4 0x40C10F19 SWAP2 PUSH1 0x44 DUP1 DUP3 ADD SWAP3 PUSH1 0x20 SWAP3 SWAP1 SWAP2 SWAP1 DUP3 SWAP1 SUB ADD DUP2 PUSH1 0x0 DUP8 DUP1 EXTCODESIZE ISZERO DUP1 ISZERO PUSH2 0x531 JUMPI PUSH1 0x0 DUP1 REVERT JUMPDEST POP GAS CALL ISZERO DUP1 ISZERO PUSH2 0x545 JUMPI RETURNDATASIZE PUSH1 0x0 DUP1 RETURNDATACOPY RETURNDATASIZE PUSH1 0x0 REVERT JUMPDEST POP POP POP POP PUSH1 0x40 MLOAD RETURNDATASIZE PUSH1 0x20 DUP2 LT ISZERO PUSH2 0x55B JUMPI PUSH1 0x0 DUP1 REVERT JUMPDEST POP MLOAD PUSH2 0x566 JUMPI PUSH1 0x0 DUP1 REVERT JUMPDEST PUSH1 0xB DUP1 SLOAD DUP3 ADD SWAP1 SSTORE PUSH1 0x40 DUP1 MLOAD CALLER DUP2 MSTORE PUSH1 0x20 DUP2 ADD DUP4 SWAP1 MSTORE DUP2 MLOAD PUSH32 0x5E5E995CE3133561AFCEAA51A9A154D5DB228CD7525D34DF5185582C18D3DF09 SWAP3 SWAP2 DUP2 SWAP1 SUB SWAP1 SWAP2 ADD SWAP1 LOG1 POP JUMP JUMPDEST PUSH1 0x8 SLOAD PUSH1 0x1 PUSH1 0x1 PUSH1 0xA0 SHL SUB AND DUP2 JUMP JUMPDEST PUSH1 0xB SLOAD DUP2 JUMP JUMPDEST PUSH1 0x7 SLOAD PUSH1 0x1 PUSH1 0x1 PUSH1 0xA0 SHL SUB AND CALLER EQ PUSH2 0x5D8 JUMPI PUSH1 0x0 DUP1 REVERT JUMPDEST PUSH1 0x0 PUSH1 0xC SSTORE JUMP JUMPDEST PUSH1 0x0 DUP3 DUP2 MSTORE PUSH1 0x5 PUSH1 0x20 MSTORE PUSH1 0x40 SWAP1 KECCAK256 SLOAD DUP3 SWAP1 PUSH1 0x1 PUSH1 0x1 PUSH1 0xA0 SHL SUB AND CALLER EQ PUSH2 0x636 JUMPI PUSH1 0x40 MLOAD PUSH3 0x461BCD PUSH1 0xE5 SHL DUP2 MSTORE PUSH1 0x4 ADD DUP1 DUP1 PUSH1 0x20 ADD DUP3 DUP2 SUB DUP3 MSTORE PUSH1 0x28 DUP2 MSTORE PUSH1 0x20 ADD DUP1 PUSH2 0x1500 PUSH1 0x28 SWAP2 CODECOPY PUSH1 0x40 ADD SWAP2 POP POP PUSH1 0x40 MLOAD DUP1 SWAP2 SUB SWAP1 REVERT JUMPDEST PUSH1 0x0 DUP2 DUP2 MSTORE PUSH1 0x5 PUSH1 0x20 MSTORE PUSH1 0x40 DUP1 DUP3 KECCAK256 DUP1 SLOAD PUSH1 0x1 PUSH1 0x1 PUSH1 0xA0 SHL SUB NOT AND SWAP1 SSTORE MLOAD DUP3 SWAP2 PUSH32 0x7CC135E0CEBB02C3480AE5D74D377283180A2601F8F644EDF7987B009316C63A SWAP2 LOG2 PUSH1 0x40 MLOAD DUP3 SWAP1 DUP5 SWAP1 PUSH32 0x2306CFE10028AE6FA38228D0DC51347D6F9E7B08CD23762870B3F582CB385A43 SWAP1 PUSH1 0x0 SWAP1 LOG3 POP PUSH1 0xC SSTORE POP JUMP JUMPDEST PUSH1 0xA SLOAD DUP2 JUMP JUMPDEST PUSH1 0x6 SLOAD PUSH1 0x1 PUSH1 0x1 PUSH1 0xA0 SHL SUB AND SWAP1 JUMP JUMPDEST PUSH1 0x6 SLOAD PUSH1 0x1 PUSH1 0x1 PUSH1 0xA0 SHL SUB AND CALLER EQ SWAP1 JUMP JUMPDEST PUSH1 0x9 SLOAD PUSH1 0x1 PUSH1 0x1 PUSH1 0xA0 SHL SUB AND DUP2 JUMP JUMPDEST PUSH2 0x6EA PUSH2 0x1467 JUMP JUMPDEST PUSH2 0x704 PUSH2 0x6F6 DUP4 PUSH2 0xC53 JUMP JUMPDEST ADDRESS PUSH4 0x2F6798D1 PUSH1 0xE1 SHL PUSH2 0xC75 JUMP JUMPDEST SWAP1 POP PUSH2 0x746 PUSH1 0x40 MLOAD DUP1 PUSH1 0x40 ADD PUSH1 0x40 MSTORE DUP1 PUSH1 0x3 DUP2 MSTORE PUSH1 0x20 ADD PUSH3 0x19D95D PUSH1 0xEA SHL DUP2 MSTORE POP PUSH1 0x40 MLOAD DUP1 PUSH1 0x80 ADD PUSH1 0x40 MSTORE DUP1 PUSH1 0x47 DUP2 MSTORE PUSH1 0x20 ADD PUSH2 0x1528 PUSH1 0x47 SWAP2 CODECOPY DUP4 SWAP2 SWAP1 PUSH2 0xC9A JUMP JUMPDEST PUSH2 0x794 PUSH1 0x40 MLOAD DUP1 PUSH1 0x40 ADD PUSH1 0x40 MSTORE DUP1 PUSH1 0x4 DUP2 MSTORE PUSH1 0x20 ADD PUSH4 0xE0C2E8D PUSH1 0xE3 SHL DUP2 MSTORE POP PUSH1 0x40 MLOAD DUP1 PUSH1 0x40 ADD PUSH1 0x40 MSTORE DUP1 PUSH1 0x5 DUP2 MSTORE PUSH1 0x20 ADD PUSH5 0x7374617465 PUSH1 0xD8 SHL DUP2 MSTORE POP DUP4 PUSH2 0xC9A SWAP1 SWAP3 SWAP2 SWAP1 PUSH4 0xFFFFFFFF AND JUMP JUMPDEST PUSH2 0x7A7 DUP4 DUP3 PUSH8 0xDE0B6B3A7640000 PUSH2 0xCBD JUMP JUMPDEST POP POP POP POP JUMP JUMPDEST PUSH1 0xC SLOAD DUP2 JUMP JUMPDEST PUSH1 0x7 SLOAD PUSH1 0x1 PUSH1 0x1 PUSH1 0xA0 SHL SUB AND CALLER EQ PUSH2 0x7CA JUMPI PUSH1 0x0 DUP1 REVERT JUMPDEST PUSH1 0x2 PUSH1 0xC SSTORE JUMP JUMPDEST PUSH1 0x7 SLOAD PUSH1 0x1 PUSH1 0x1 PUSH1 0xA0 SHL SUB AND CALLER EQ PUSH2 0x7E8 JUMPI PUSH1 0x0 DUP1 REVERT JUMPDEST PUSH1 0x1 PUSH1 0xC SSTORE JUMP JUMPDEST PUSH2 0x7F7 PUSH2 0x6C2 JUMP JUMPDEST PUSH2 0x848 JUMPI PUSH1 0x40 DUP1 MLOAD PUSH3 0x461BCD PUSH1 0xE5 SHL DUP2 MSTORE PUSH1 0x20 PUSH1 0x4 DUP3 ADD DUP2 SWAP1 MSTORE PUSH1 0x24 DUP3 ADD MSTORE PUSH32 0x4F776E61626C653A2063616C6C6572206973206E6F7420746865206F776E6572 PUSH1 0x44 DUP3 ADD MSTORE SWAP1 MLOAD SWAP1 DUP2 SWAP1 SUB PUSH1 0x64 ADD SWAP1 REVERT JUMPDEST PUSH2 0x7A7 DUP5 DUP5 DUP5 DUP5 PUSH2 0xE8B JUMP JUMPDEST PUSH2 0x85C PUSH2 0x6C2 JUMP JUMPDEST PUSH2 0x8AD JUMPI PUSH1 0x40 DUP1 MLOAD PUSH3 0x461BCD PUSH1 0xE5 SHL DUP2 MSTORE PUSH1 0x20 PUSH1 0x4 DUP3 ADD DUP2 SWAP1 MSTORE PUSH1 0x24 DUP3 ADD MSTORE PUSH32 0x4F776E61626C653A2063616C6C6572206973206E6F7420746865206F776E6572 PUSH1 0x44 DUP3 ADD MSTORE SWAP1 MLOAD SWAP1 DUP2 SWAP1 SUB PUSH1 0x64 ADD SWAP1 REVERT JUMPDEST PUSH2 0x8B6 DUP2 PUSH2 0xF63 JUMP JUMPDEST POP JUMP JUMPDEST PUSH1 0xC SLOAD PUSH1 0x1 EQ ISZERO PUSH2 0xA8E JUMPI PUSH1 0x8 SLOAD PUSH1 0x1 PUSH1 0x1 PUSH1 0xA0 SHL SUB DUP4 DUP2 AND SWAP2 AND EQ PUSH2 0x91F JUMPI PUSH1 0x40 DUP1 MLOAD PUSH3 0x461BCD PUSH1 0xE5 SHL DUP2 MSTORE PUSH1 0x20 PUSH1 0x4 DUP3 ADD MSTORE PUSH1 0x16 PUSH1 0x24 DUP3 ADD MSTORE PUSH22 0xA8D0D2E640C6DED2DC40D0C2E640DCDE40EEDEE4E8D PUSH1 0x53 SHL PUSH1 0x44 DUP3 ADD MSTORE SWAP1 MLOAD SWAP1 DUP2 SWAP1 SUB PUSH1 0x64 ADD SWAP1 REVERT JUMPDEST PUSH1 0x8 SLOAD PUSH1 0x40 DUP1 MLOAD PUSH4 0x70A08231 PUSH1 0xE0 SHL DUP2 MSTORE CALLER PUSH1 0x4 DUP3 ADD MSTORE SWAP1 MLOAD DUP4 SWAP3 PUSH1 0x1 PUSH1 0x1 PUSH1 0xA0 SHL SUB AND SWAP2 PUSH4 0x70A08231 SWAP2 PUSH1 0x24 DUP1 DUP4 ADD SWAP3 PUSH1 0x20 SWAP3 SWAP2 SWAP1 DUP3 SWAP1 SUB ADD DUP2 DUP7 DUP1 EXTCODESIZE ISZERO DUP1 ISZERO PUSH2 0x969 JUMPI PUSH1 0x0 DUP1 REVERT JUMPDEST POP GAS STATICCALL ISZERO DUP1 ISZERO PUSH2 0x97D JUMPI RETURNDATASIZE PUSH1 0x0 DUP1 RETURNDATACOPY RETURNDATASIZE PUSH1 0x0 REVERT JUMPDEST POP POP POP POP PUSH1 0x40 MLOAD RETURNDATASIZE PUSH1 0x20 DUP2 LT ISZERO PUSH2 0x993 JUMPI PUSH1 0x0 DUP1 REVERT JUMPDEST POP MLOAD LT ISZERO PUSH2 0x9A0 JUMPI PUSH1 0x0 DUP1 REVERT JUMPDEST PUSH2 0x9AC DUP2 PUSH1 0xA SLOAD PUSH2 0xC2C JUMP JUMPDEST SELFBALANCE LT ISZERO PUSH2 0x9B8 JUMPI PUSH1 0x0 DUP1 REVERT JUMPDEST PUSH1 0x8 SLOAD PUSH1 0x40 DUP1 MLOAD PUSH4 0x1B4E583D PUSH1 0xE3 SHL DUP2 MSTORE CALLER PUSH1 0x4 DUP3 ADD MSTORE ADDRESS PUSH1 0x24 DUP3 ADD MSTORE PUSH1 0x44 DUP2 ADD DUP5 SWAP1 MSTORE SWAP1 MLOAD PUSH1 0x1 PUSH1 0x1 PUSH1 0xA0 SHL SUB SWAP1 SWAP3 AND SWAP2 PUSH4 0xDA72C1E8 SWAP2 PUSH1 0x64 DUP1 DUP3 ADD SWAP3 PUSH1 0x20 SWAP3 SWAP1 SWAP2 SWAP1 DUP3 SWAP1 SUB ADD DUP2 PUSH1 0x0 DUP8 DUP1 EXTCODESIZE ISZERO DUP1 ISZERO PUSH2 0xA12 JUMPI PUSH1 0x0 DUP1 REVERT JUMPDEST POP GAS CALL ISZERO DUP1 ISZERO PUSH2 0xA26 JUMPI RETURNDATASIZE PUSH1 0x0 DUP1 RETURNDATACOPY RETURNDATASIZE PUSH1 0x0 REVERT JUMPDEST POP POP POP POP PUSH1 0x40 MLOAD RETURNDATASIZE PUSH1 0x20 DUP2 LT ISZERO PUSH2 0xA3C JUMPI PUSH1 0x0 DUP1 REVERT JUMPDEST POP MLOAD PUSH2 0xA47 JUMPI PUSH1 0x0 DUP1 REVERT JUMPDEST CALLER PUSH1 0x1 PUSH1 0x1 PUSH1 0xA0 SHL SUB AND PUSH2 0x8FC PUSH2 0xA60 DUP4 PUSH1 0xA SLOAD PUSH2 0xC2C JUMP JUMPDEST PUSH1 0x40 MLOAD DUP2 ISZERO SWAP1 SWAP3 MUL SWAP2 PUSH1 0x0 DUP2 DUP2 DUP2 DUP6 DUP9 DUP9 CALL SWAP4 POP POP POP POP ISZERO DUP1 ISZERO PUSH2 0xA88 JUMPI RETURNDATASIZE PUSH1 0x0 DUP1 RETURNDATACOPY RETURNDATASIZE PUSH1 0x0 REVERT JUMPDEST POP PUSH2 0x42C JUMP JUMPDEST PUSH1 0xC SLOAD PUSH1 0x2 EQ ISZERO PUSH2 0xBE7 JUMPI PUSH1 0x9 SLOAD PUSH1 0x1 PUSH1 0x1 PUSH1 0xA0 SHL SUB DUP4 DUP2 AND SWAP2 AND EQ PUSH2 0xAF4 JUMPI PUSH1 0x40 DUP1 MLOAD PUSH3 0x461BCD PUSH1 0xE5 SHL DUP2 MSTORE PUSH1 0x20 PUSH1 0x4 DUP3 ADD MSTORE PUSH1 0x16 PUSH1 0x24 DUP3 ADD MSTORE PUSH22 0xA8D0D2E640C6DED2DC40D0C2E640DCDE40EEDEE4E8D PUSH1 0x53 SHL PUSH1 0x44 DUP3 ADD MSTORE SWAP1 MLOAD SWAP1 DUP2 SWAP1 SUB PUSH1 0x64 ADD SWAP1 REVERT JUMPDEST PUSH1 0x9 SLOAD PUSH1 0x40 DUP1 MLOAD PUSH4 0x70A08231 PUSH1 0xE0 SHL DUP2 MSTORE CALLER PUSH1 0x4 DUP3 ADD MSTORE SWAP1 MLOAD DUP4 SWAP3 PUSH1 0x1 PUSH1 0x1 PUSH1 0xA0 SHL SUB AND SWAP2 PUSH4 0x70A08231 SWAP2 PUSH1 0x24 DUP1 DUP4 ADD SWAP3 PUSH1 0x20 SWAP3 SWAP2 SWAP1 DUP3 SWAP1 SUB ADD DUP2 DUP7 DUP1 EXTCODESIZE ISZERO DUP1 ISZERO PUSH2 0xB3E JUMPI PUSH1 0x0 DUP1 REVERT JUMPDEST POP GAS STATICCALL ISZERO DUP1 ISZERO PUSH2 0xB52 JUMPI RETURNDATASIZE PUSH1 0x0 DUP1 RETURNDATACOPY RETURNDATASIZE PUSH1 0x0 REVERT JUMPDEST POP POP POP POP PUSH1 0x40 MLOAD RETURNDATASIZE PUSH1 0x20 DUP2 LT ISZERO PUSH2 0xB68 JUMPI PUSH1 0x0 DUP1 REVERT JUMPDEST POP MLOAD LT ISZERO PUSH2 0xB75 JUMPI PUSH1 0x0 DUP1 REVERT JUMPDEST PUSH2 0xB81 DUP2 PUSH1 0xA SLOAD PUSH2 0xC2C JUMP JUMPDEST SELFBALANCE LT ISZERO PUSH2 0xB8D JUMPI PUSH1 0x0 DUP1 REVERT JUMPDEST PUSH1 0x9 SLOAD PUSH1 0x40 DUP1 MLOAD PUSH4 0x1B4E583D PUSH1 0xE3 SHL DUP2 MSTORE CALLER PUSH1 0x4 DUP3 ADD MSTORE ADDRESS PUSH1 0x24 DUP3 ADD MSTORE PUSH1 0x44 DUP2 ADD DUP5 SWAP1 MSTORE SWAP1 MLOAD PUSH1 0x1 PUSH1 0x1 PUSH1 0xA0 SHL SUB SWAP1 SWAP3 AND SWAP2 PUSH4 0xDA72C1E8 SWAP2 PUSH1 0x64 DUP1 DUP3 ADD SWAP3 PUSH1 0x20 SWAP3 SWAP1 SWAP2 SWAP1 DUP3 SWAP1 SUB ADD DUP2 PUSH1 0x0 DUP8 DUP1 EXTCODESIZE ISZERO DUP1 ISZERO PUSH2 0xA12 JUMPI PUSH1 0x0 DUP1 REVERT JUMPDEST PUSH1 0x40 DUP1 MLOAD PUSH3 0x461BCD PUSH1 0xE5 SHL DUP2 MSTORE PUSH1 0x20 PUSH1 0x4 DUP3 ADD MSTORE PUSH1 0x15 PUSH1 0x24 DUP3 ADD MSTORE PUSH21 0x636F6E7472616374207374696C6C20616374697665 PUSH1 0x58 SHL PUSH1 0x44 DUP3 ADD MSTORE SWAP1 MLOAD SWAP1 DUP2 SWAP1 SUB PUSH1 0x64 ADD SWAP1 REVERT JUMPDEST DUP2 DUP2 MUL DUP3 ISZERO DUP1 PUSH2 0xC44 JUMPI POP DUP2 DUP4 DUP3 DUP2 PUSH2 0xC41 JUMPI INVALID JUMPDEST DIV EQ JUMPDEST PUSH2 0xC4D JUMPI PUSH1 0x0 DUP1 REVERT JUMPDEST SWAP3 SWAP2 POP POP JUMP JUMPDEST DUP1 MLOAD PUSH1 0x0 SWAP1 DUP3 SWAP1 PUSH2 0xC68 JUMPI POP PUSH1 0x0 SWAP1 POP PUSH2 0xC70 JUMP JUMPDEST POP POP PUSH1 0x20 DUP2 ADD MLOAD JUMPDEST SWAP2 SWAP1 POP JUMP JUMPDEST PUSH2 0xC7D PUSH2 0x1467 JUMP JUMPDEST PUSH2 0xC85 PUSH2 0x1467 JUMP JUMPDEST PUSH2 0xC91 DUP2 DUP7 DUP7 DUP7 PUSH2 0x1004 JUMP JUMPDEST SWAP6 SWAP5 POP POP POP POP POP JUMP JUMPDEST PUSH1 0x80 DUP4 ADD MLOAD PUSH2 0xCA9 SWAP1 DUP4 PUSH2 0x1041 JUMP JUMPDEST PUSH1 0x80 DUP4 ADD MLOAD PUSH2 0xCB8 SWAP1 DUP3 PUSH2 0x1041 JUMP JUMPDEST POP POP POP JUMP JUMPDEST PUSH1 0x4 SLOAD PUSH1 0x40 DUP1 MLOAD ADDRESS PUSH1 0x60 SWAP1 DUP2 SHL PUSH1 0x20 DUP1 DUP5 ADD SWAP2 SWAP1 SWAP2 MSTORE PUSH1 0x34 DUP1 DUP5 ADD DUP7 SWAP1 MSTORE DUP5 MLOAD DUP1 DUP6 SUB SWAP1 SWAP2 ADD DUP2 MSTORE PUSH1 0x54 SWAP1 SWAP4 ADD DUP5 MSTORE DUP3 MLOAD SWAP3 DUP2 ADD SWAP3 SWAP1 SWAP3 KECCAK256 SWAP1 DUP7 ADD SWAP4 SWAP1 SWAP4 MSTORE PUSH1 0x0 DUP4 DUP2 MSTORE PUSH1 0x5 SWAP1 SWAP2 MSTORE DUP2 DUP2 KECCAK256 DUP1 SLOAD PUSH1 0x1 PUSH1 0x1 PUSH1 0xA0 SHL SUB NOT AND PUSH1 0x1 PUSH1 0x1 PUSH1 0xA0 SHL SUB DUP9 AND OR SWAP1 SSTORE SWAP1 MLOAD DUP3 SWAP2 PUSH32 0xB5E6E01E79F91267DC17B4E6314D5D4D03593D2CEEE0FBB452B750BD70EA5AF9 SWAP2 LOG2 PUSH1 0x2 SLOAD PUSH1 0x1 PUSH1 0x1 PUSH1 0xA0 SHL SUB AND PUSH4 0x4000AEA0 DUP6 DUP5 PUSH2 0xD65 DUP8 PUSH2 0x1058 JUMP JUMPDEST PUSH1 0x40 MLOAD DUP5 PUSH4 0xFFFFFFFF AND PUSH1 0xE0 SHL DUP2 MSTORE PUSH1 0x4 ADD DUP1 DUP5 PUSH1 0x1 PUSH1 0x1 PUSH1 0xA0 SHL SUB AND DUP2 MSTORE PUSH1 0x20 ADD DUP4 DUP2 MSTORE PUSH1 0x20 ADD DUP1 PUSH1 0x20 ADD DUP3 DUP2 SUB DUP3 MSTORE DUP4 DUP2 DUP2 MLOAD DUP2 MSTORE PUSH1 0x20 ADD SWAP2 POP DUP1 MLOAD SWAP1 PUSH1 0x20 ADD SWAP1 DUP1 DUP4 DUP4 PUSH1 0x0 JUMPDEST DUP4 DUP2 LT ISZERO PUSH2 0xDC6 JUMPI DUP2 DUP2 ADD MLOAD DUP4 DUP3 ADD MSTORE PUSH1 0x20 ADD PUSH2 0xDAE JUMP JUMPDEST POP POP POP POP SWAP1 POP SWAP1 DUP2 ADD SWAP1 PUSH1 0x1F AND DUP1 ISZERO PUSH2 0xDF3 JUMPI DUP1 DUP3 SUB DUP1 MLOAD PUSH1 0x1 DUP4 PUSH1 0x20 SUB PUSH2 0x100 EXP SUB NOT AND DUP2 MSTORE PUSH1 0x20 ADD SWAP2 POP JUMPDEST POP SWAP5 POP POP POP POP POP PUSH1 0x20 PUSH1 0x40 MLOAD DUP1 DUP4 SUB DUP2 PUSH1 0x0 DUP8 DUP1 EXTCODESIZE ISZERO DUP1 ISZERO PUSH2 0xE14 JUMPI PUSH1 0x0 DUP1 REVERT JUMPDEST POP GAS CALL ISZERO DUP1 ISZERO PUSH2 0xE28 JUMPI RETURNDATASIZE PUSH1 0x0 DUP1 RETURNDATACOPY RETURNDATASIZE PUSH1 0x0 REVERT JUMPDEST POP POP POP POP PUSH1 0x40 MLOAD RETURNDATASIZE PUSH1 0x20 DUP2 LT ISZERO PUSH2 0xE3E JUMPI PUSH1 0x0 DUP1 REVERT JUMPDEST POP MLOAD PUSH2 0xE7B JUMPI PUSH1 0x40 MLOAD PUSH3 0x461BCD PUSH1 0xE5 SHL DUP2 MSTORE PUSH1 0x4 ADD DUP1 DUP1 PUSH1 0x20 ADD DUP3 DUP2 SUB DUP3 MSTORE PUSH1 0x23 DUP2 MSTORE PUSH1 0x20 ADD DUP1 PUSH2 0x14DD PUSH1 0x23 SWAP2 CODECOPY PUSH1 0x40 ADD SWAP2 POP POP PUSH1 0x40 MLOAD DUP1 SWAP2 SUB SWAP1 REVERT JUMPDEST PUSH1 0x4 DUP1 SLOAD PUSH1 0x1 ADD SWAP1 SSTORE SWAP4 SWAP3 POP POP POP JUMP JUMPDEST PUSH1 0x0 DUP5 DUP2 MSTORE PUSH1 0x5 PUSH1 0x20 MSTORE PUSH1 0x40 DUP1 DUP3 KECCAK256 DUP1 SLOAD PUSH1 0x1 PUSH1 0x1 PUSH1 0xA0 SHL SUB NOT DUP2 AND SWAP1 SWAP2 SSTORE SWAP1 MLOAD PUSH1 0x1 PUSH1 0x1 PUSH1 0xA0 SHL SUB SWAP1 SWAP2 AND SWAP2 DUP7 SWAP2 PUSH32 0xE1FE3AFA0F7F761FF0A8B89086790EFD5140D2907EBD5B7FF6BFCB5E075FD4C5 SWAP2 SWAP1 LOG2 PUSH1 0x40 DUP1 MLOAD PUSH4 0x6EE4D553 PUSH1 0xE0 SHL DUP2 MSTORE PUSH1 0x4 DUP2 ADD DUP8 SWAP1 MSTORE PUSH1 0x24 DUP2 ADD DUP7 SWAP1 MSTORE PUSH1 0x1 PUSH1 0x1 PUSH1 0xE0 SHL SUB NOT DUP6 AND PUSH1 0x44 DUP3 ADD MSTORE PUSH1 0x64 DUP2 ADD DUP5 SWAP1 MSTORE SWAP1 MLOAD PUSH1 0x1 PUSH1 0x1 PUSH1 0xA0 SHL SUB DUP4 AND SWAP2 PUSH4 0x6EE4D553 SWAP2 PUSH1 0x84 DUP1 DUP4 ADD SWAP3 PUSH1 0x0 SWAP3 SWAP2 SWAP1 DUP3 SWAP1 SUB ADD DUP2 DUP4 DUP8 DUP1 EXTCODESIZE ISZERO DUP1 ISZERO PUSH2 0xF44 JUMPI PUSH1 0x0 DUP1 REVERT JUMPDEST POP GAS CALL ISZERO DUP1 ISZERO PUSH2 0xF58 JUMPI RETURNDATASIZE PUSH1 0x0 DUP1 RETURNDATACOPY RETURNDATASIZE PUSH1 0x0 REVERT JUMPDEST POP POP POP POP POP POP POP POP POP JUMP JUMPDEST PUSH1 0x1 PUSH1 0x1 PUSH1 0xA0 SHL SUB DUP2 AND PUSH2 0xFA8 JUMPI PUSH1 0x40 MLOAD PUSH3 0x461BCD PUSH1 0xE5 SHL DUP2 MSTORE PUSH1 0x4 ADD DUP1 DUP1 PUSH1 0x20 ADD DUP3 DUP2 SUB DUP3 MSTORE PUSH1 0x26 DUP2 MSTORE PUSH1 0x20 ADD DUP1 PUSH2 0x14B7 PUSH1 0x26 SWAP2 CODECOPY PUSH1 0x40 ADD SWAP2 POP POP PUSH1 0x40 MLOAD DUP1 SWAP2 SUB SWAP1 REVERT JUMPDEST PUSH1 0x6 SLOAD PUSH1 0x40 MLOAD PUSH1 0x1 PUSH1 0x1 PUSH1 0xA0 SHL SUB DUP1 DUP5 AND SWAP3 AND SWAP1 PUSH32 0x8BE0079C531659141344CD1FD0A4F28419497F9722A3DAAFE3B4186F6B6457E0 SWAP1 PUSH1 0x0 SWAP1 LOG3 PUSH1 0x6 DUP1 SLOAD PUSH1 0x1 PUSH1 0x1 PUSH1 0xA0 SHL SUB NOT AND PUSH1 0x1 PUSH1 0x1 PUSH1 0xA0 SHL SUB SWAP3 SWAP1 SWAP3 AND SWAP2 SWAP1 SWAP2 OR SWAP1 SSTORE JUMP JUMPDEST PUSH2 0x100C PUSH2 0x1467 JUMP JUMPDEST PUSH2 0x101C DUP6 PUSH1 0x80 ADD MLOAD PUSH2 0x100 PUSH2 0x117C JUMP JUMPDEST POP POP SWAP2 DUP4 MSTORE PUSH1 0x1 PUSH1 0x1 PUSH1 0xA0 SHL SUB AND PUSH1 0x20 DUP4 ADD MSTORE PUSH1 0x1 PUSH1 0x1 PUSH1 0xE0 SHL SUB NOT AND PUSH1 0x40 DUP3 ADD MSTORE SWAP1 JUMP JUMPDEST PUSH2 0x104E DUP3 PUSH1 0x3 DUP4 MLOAD PUSH2 0x11B6 JUMP JUMPDEST PUSH2 0xCB8 DUP3 DUP3 PUSH2 0x128A JUMP JUMPDEST PUSH1 0x60 PUSH4 0x40429946 PUSH1 0xE0 SHL PUSH1 0x0 DUP1 DUP5 PUSH1 0x0 ADD MLOAD DUP6 PUSH1 0x20 ADD MLOAD DUP7 PUSH1 0x40 ADD MLOAD DUP8 PUSH1 0x60 ADD MLOAD PUSH1 0x1 DUP10 PUSH1 0x80 ADD MLOAD PUSH1 0x0 ADD MLOAD PUSH1 0x40 MLOAD PUSH1 0x24 ADD DUP1 DUP10 PUSH1 0x1 PUSH1 0x1 PUSH1 0xA0 SHL SUB AND DUP2 MSTORE PUSH1 0x20 ADD DUP9 DUP2 MSTORE PUSH1 0x20 ADD DUP8 DUP2 MSTORE PUSH1 0x20 ADD DUP7 PUSH1 0x1 PUSH1 0x1 PUSH1 0xA0 SHL SUB AND DUP2 MSTORE PUSH1 0x20 ADD DUP6 PUSH1 0x1 PUSH1 0x1 PUSH1 0xE0 SHL SUB NOT AND DUP2 MSTORE PUSH1 0x20 ADD DUP5 DUP2 MSTORE PUSH1 0x20 ADD DUP4 DUP2 MSTORE PUSH1 0x20 ADD DUP1 PUSH1 0x20 ADD DUP3 DUP2 SUB DUP3 MSTORE DUP4 DUP2 DUP2 MLOAD DUP2 MSTORE PUSH1 0x20 ADD SWAP2 POP DUP1 MLOAD SWAP1 PUSH1 0x20 ADD SWAP1 DUP1 DUP4 DUP4 PUSH1 0x0 JUMPDEST DUP4 DUP2 LT ISZERO PUSH2 0x110A JUMPI DUP2 DUP2 ADD MLOAD DUP4 DUP3 ADD MSTORE PUSH1 0x20 ADD PUSH2 0x10F2 JUMP JUMPDEST POP POP POP POP SWAP1 POP SWAP1 DUP2 ADD SWAP1 PUSH1 0x1F AND DUP1 ISZERO PUSH2 0x1137 JUMPI DUP1 DUP3 SUB DUP1 MLOAD PUSH1 0x1 DUP4 PUSH1 0x20 SUB PUSH2 0x100 EXP SUB NOT AND DUP2 MSTORE PUSH1 0x20 ADD SWAP2 POP JUMPDEST POP PUSH1 0x40 DUP1 MLOAD PUSH1 0x1F NOT DUP2 DUP5 SUB ADD DUP2 MSTORE SWAP2 SWAP1 MSTORE PUSH1 0x20 DUP2 ADD DUP1 MLOAD PUSH1 0x1 PUSH1 0x1 PUSH1 0xE0 SHL SUB AND PUSH1 0x1 PUSH1 0x1 PUSH1 0xE0 SHL SUB NOT SWAP1 SWAP14 AND SWAP13 SWAP1 SWAP13 OR SWAP1 SWAP12 MSTORE POP SWAP9 SWAP10 POP POP POP POP POP POP POP POP POP POP SWAP2 SWAP1 POP JUMP JUMPDEST PUSH2 0x1184 PUSH2 0x149C JUMP JUMPDEST PUSH1 0x20 DUP3 MOD ISZERO PUSH2 0x1199 JUMPI PUSH1 0x20 DUP3 MOD PUSH1 0x20 SUB DUP3 ADD SWAP2 POP JUMPDEST POP PUSH1 0x20 DUP3 DUP2 ADD DUP3 SWAP1 MSTORE PUSH1 0x40 DUP1 MLOAD DUP1 DUP6 MSTORE PUSH1 0x0 DUP2 MSTORE SWAP1 SWAP3 ADD ADD SWAP1 MSTORE SWAP1 JUMP JUMPDEST PUSH1 0x17 DUP2 GT PUSH2 0x11D7 JUMPI PUSH2 0x11D1 DUP4 PUSH1 0xE0 PUSH1 0x5 DUP6 SWAP1 SHL AND DUP4 OR PUSH2 0x12AB JUMP JUMPDEST POP PUSH2 0xCB8 JUMP JUMPDEST PUSH1 0xFF DUP2 GT PUSH2 0x1201 JUMPI PUSH2 0x11F4 DUP4 PUSH1 0x18 PUSH2 0x1FE0 PUSH1 0x5 DUP7 SWAP1 SHL AND OR PUSH2 0x12AB JUMP JUMPDEST POP PUSH2 0x11D1 DUP4 DUP3 PUSH1 0x1 PUSH2 0x12C3 JUMP JUMPDEST PUSH2 0xFFFF DUP2 GT PUSH2 0x122C JUMPI PUSH2 0x121F DUP4 PUSH1 0x19 PUSH2 0x1FE0 PUSH1 0x5 DUP7 SWAP1 SHL AND OR PUSH2 0x12AB JUMP JUMPDEST POP PUSH2 0x11D1 DUP4 DUP3 PUSH1 0x2 PUSH2 0x12C3 JUMP JUMPDEST PUSH4 0xFFFFFFFF DUP2 GT PUSH2 0x1259 JUMPI PUSH2 0x124C DUP4 PUSH1 0x1A PUSH2 0x1FE0 PUSH1 0x5 DUP7 SWAP1 SHL AND OR PUSH2 0x12AB JUMP JUMPDEST POP PUSH2 0x11D1 DUP4 DUP3 PUSH1 0x4 PUSH2 0x12C3 JUMP JUMPDEST PUSH8 0xFFFFFFFFFFFFFFFF DUP2 GT PUSH2 0xCB8 JUMPI PUSH2 0x127D DUP4 PUSH1 0x1B PUSH2 0x1FE0 PUSH1 0x5 DUP7 SWAP1 SHL AND OR PUSH2 0x12AB JUMP JUMPDEST POP PUSH2 0x7A7 DUP4 DUP3 PUSH1 0x8 PUSH2 0x12C3 JUMP JUMPDEST PUSH2 0x1292 PUSH2 0x149C JUMP JUMPDEST PUSH2 0x12A4 DUP4 DUP5 PUSH1 0x0 ADD MLOAD MLOAD DUP5 DUP6 MLOAD PUSH2 0x12E4 JUMP JUMPDEST SWAP4 SWAP3 POP POP POP JUMP JUMPDEST PUSH2 0x12B3 PUSH2 0x149C JUMP JUMPDEST PUSH2 0x12A4 DUP4 DUP5 PUSH1 0x0 ADD MLOAD MLOAD DUP5 PUSH2 0x1390 JUMP JUMPDEST PUSH2 0x12CB PUSH2 0x149C JUMP JUMPDEST PUSH2 0x12DC DUP5 DUP6 PUSH1 0x0 ADD MLOAD MLOAD DUP6 DUP6 PUSH2 0x13DB JUMP JUMPDEST SWAP5 SWAP4 POP POP POP POP JUMP JUMPDEST PUSH2 0x12EC PUSH2 0x149C JUMP JUMPDEST DUP3 MLOAD DUP3 GT ISZERO PUSH2 0x12FA JUMPI PUSH1 0x0 DUP1 REVERT JUMPDEST DUP5 PUSH1 0x20 ADD MLOAD DUP3 DUP6 ADD GT ISZERO PUSH2 0x1324 JUMPI PUSH2 0x1324 DUP6 PUSH2 0x131C DUP8 PUSH1 0x20 ADD MLOAD DUP8 DUP7 ADD PUSH2 0x1439 JUMP JUMPDEST PUSH1 0x2 MUL PUSH2 0x1450 JUMP JUMPDEST PUSH1 0x0 DUP1 DUP7 MLOAD DUP1 MLOAD DUP8 PUSH1 0x20 DUP4 ADD ADD SWAP4 POP DUP1 DUP9 DUP8 ADD GT ISZERO PUSH2 0x1343 JUMPI DUP8 DUP7 ADD DUP3 MSTORE JUMPDEST POP POP POP PUSH1 0x20 DUP5 ADD JUMPDEST PUSH1 0x20 DUP5 LT PUSH2 0x136A JUMPI DUP1 MLOAD DUP3 MSTORE PUSH1 0x1F NOT SWAP1 SWAP4 ADD SWAP3 PUSH1 0x20 SWAP2 DUP3 ADD SWAP2 ADD PUSH2 0x134B JUMP JUMPDEST MLOAD DUP2 MLOAD PUSH1 0x0 NOT PUSH1 0x20 DUP7 SWAP1 SUB PUSH2 0x100 EXP ADD SWAP1 DUP2 AND SWAP1 NOT SWAP2 SWAP1 SWAP2 AND OR SWAP1 MSTORE POP DUP4 SWAP5 SWAP4 POP POP POP POP JUMP JUMPDEST PUSH2 0x1398 PUSH2 0x149C JUMP JUMPDEST DUP4 PUSH1 0x20 ADD MLOAD DUP4 LT PUSH2 0x13B4 JUMPI PUSH2 0x13B4 DUP5 DUP6 PUSH1 0x20 ADD MLOAD PUSH1 0x2 MUL PUSH2 0x1450 JUMP JUMPDEST DUP4 MLOAD DUP1 MLOAD PUSH1 0x20 DUP6 DUP4 ADD ADD DUP5 DUP2 MSTORE8 POP DUP1 DUP6 EQ ISZERO PUSH2 0x13D1 JUMPI PUSH1 0x1 DUP2 ADD DUP3 MSTORE JUMPDEST POP SWAP4 SWAP5 SWAP4 POP POP POP POP JUMP JUMPDEST PUSH2 0x13E3 PUSH2 0x149C JUMP JUMPDEST DUP5 PUSH1 0x20 ADD MLOAD DUP5 DUP4 ADD GT ISZERO PUSH2 0x1400 JUMPI PUSH2 0x1400 DUP6 DUP6 DUP5 ADD PUSH1 0x2 MUL PUSH2 0x1450 JUMP JUMPDEST PUSH1 0x0 PUSH1 0x1 DUP4 PUSH2 0x100 EXP SUB SWAP1 POP DUP6 MLOAD DUP4 DUP7 DUP3 ADD ADD DUP6 DUP4 NOT DUP3 MLOAD AND OR DUP2 MSTORE POP DUP1 MLOAD DUP5 DUP8 ADD GT ISZERO PUSH2 0x142E JUMPI DUP4 DUP7 ADD DUP2 MSTORE JUMPDEST POP SWAP5 SWAP6 SWAP5 POP POP POP POP POP JUMP JUMPDEST PUSH1 0x0 DUP2 DUP4 GT ISZERO PUSH2 0x144A JUMPI POP DUP2 PUSH2 0xC4D JUMP JUMPDEST POP SWAP2 SWAP1 POP JUMP JUMPDEST DUP2 MLOAD PUSH2 0x145C DUP4 DUP4 PUSH2 0x117C JUMP JUMPDEST POP PUSH2 0x7A7 DUP4 DUP3 PUSH2 0x128A JUMP JUMPDEST PUSH1 0x40 DUP1 MLOAD PUSH1 0xA0 DUP2 ADD DUP3 MSTORE PUSH1 0x0 DUP1 DUP3 MSTORE PUSH1 0x20 DUP3 ADD DUP2 SWAP1 MSTORE SWAP2 DUP2 ADD DUP3 SWAP1 MSTORE PUSH1 0x60 DUP2 ADD SWAP2 SWAP1 SWAP2 MSTORE PUSH1 0x80 DUP2 ADD PUSH2 0x1497 PUSH2 0x149C JUMP JUMPDEST SWAP1 MSTORE SWAP1 JUMP JUMPDEST PUSH1 0x40 MLOAD DUP1 PUSH1 0x40 ADD PUSH1 0x40 MSTORE DUP1 PUSH1 0x60 DUP2 MSTORE PUSH1 0x20 ADD PUSH1 0x0 DUP2 MSTORE POP SWAP1 JUMP INVALID 0x4F PUSH24 0x6E61626C653A206E6577206F776E65722069732074686520 PUSH27 0x65726F2061646472657373756E61626C6520746F207472616E7366 PUSH6 0x72416E644361 PUSH13 0x6C20746F206F7261636C65536F PUSH22 0x726365206D75737420626520746865206F7261636C65 KECCAK256 PUSH16 0x66207468652072657175657374687474 PUSH17 0x733A2F2F6931696869796A7075382E6578 PUSH6 0x637574652D61 PUSH17 0x692E75732D776573742D312E616D617A6F PUSH15 0x6177732E636F6D2F64656661756C74 0x2F PUSH21 0x6573745F617069A2646970667358221220777FDC79 PUSH16 0x1F5016976A3A7C0C54DF4B0A9E2619A0 0x5C 0xAD PUSH22 0xED12A4BA0B71E2564736F6C634300060C0033000000 ","sha1":"24e53fb4a5ad565986e40d3904a551e107c860a3","source":"pragma solidity ^0.6.0;\n\nimport \"./Token.sol\";\nimport \"./SafeMath.sol\";\nimport \"./updateState.sol\";\nimport \"evm-contracts/src/v0.6/ChainlinkClient.sol\";\nimport \"evm-contracts/src/v0.6/vendor/Ownable.sol\";\n\n\ncontract Manager is ChainlinkClient, Ownable {\n    \n    uint256 constant private ORACLE_PAYMENT = 1 * LINK;\n    \n    address payable admin;\n    Token public AtokenContract;\n    Token public BtokenContract;\n    uint256 public tokenPrice;\n    uint256 public tokensSold;\n    uint256 public state;\n    \n\n    event Sell(address _buyer, uint256 _amount);\n\n    event RequestStateFulfilled(\n    bytes32 indexed requestId,\n    uint256 indexed state\n  );\n\n    constructor(Token _AtokenContract, Token _BtokenContract, uint256 _tokenPrice, uint256 _state) public Ownable() {\n        setPublicChainlinkToken();\n        admin = msg.sender;\n        AtokenContract = _AtokenContract;\n        BtokenContract = _BtokenContract;\n        tokenPrice = _tokenPrice;\n        state = _state; // leaves open possibility of initializing with wrong state\n    }\n\n\n    /**\n        @notice Users can buy an equal amount of A and B tokens\n        @param _numberOfTokens The number of A and B tokens requested\n    */\n\n    function buyTokens(uint256 _numberOfTokens) public payable {\n        require(state == 0);\n        require(msg.value == SafeMath.mul(_numberOfTokens, tokenPrice));\n        require(AtokenContract.mint(msg.sender, _numberOfTokens));\n        require(BtokenContract.mint(msg.sender, _numberOfTokens));\n\n        tokensSold += _numberOfTokens;\n\n        Sell(msg.sender, _numberOfTokens);\n    }\n\n    /**\n        @notice admin can change the contract state to \"active\"\n    */\n\n    function trigger_active() public {\n        require(msg.sender==admin); \n        state = 0;\n    }\n\n    /**\n        @notice admin can change the contract state to \"triggered\"\n    */\n\n    function trigger_triggered() public {\n        require(msg.sender==admin);\n        state = 1;\n    }\n\n    /**\n        @notice admin can change the contract state to \"timedout\"\n    */\n\n    function trigger_timeout() public {\n        require(msg.sender==admin);\n        state = 2;\n    }\n\n    /**\n        @notice Allows users to exchange either A or B tokens for ETH\n        @param _token The type of token being redeemed (must be A or B)\n        @param _numberOfTokens The number of A or B tokens to be redeemed \n    */\n\n    function redeem(Token _token, uint256 _numberOfTokens) public payable {\n        \n        if (state == 0){\n            requestState(address(0x4712020cA7E184C545FD2483696c9dC36cb7c36a),\"ca0d86424890466f856de3e868087f81\");\n            \n        } else {\n            redeemExecute(_token, _numberOfTokens);\n        }\n    \n    }\n\n\n    function redeemExecute(Token _token, uint256 _numberOfTokens) internal {\n\n        if (state == 1){\n            require(address(_token)==address(AtokenContract), \"This coin has no worth\");\n            require(AtokenContract.balanceOf(msg.sender)>=_numberOfTokens);\n            require(address(this).balance>=SafeMath.mul(_numberOfTokens, tokenPrice));\n            require(AtokenContract.adminTransfer(msg.sender, address(this), _numberOfTokens));\n            msg.sender.transfer(SafeMath.mul(_numberOfTokens,tokenPrice));\n            \n        } else if (state == 2){\n            require(address(_token)==address(BtokenContract), \"This coin has no worth\");\n            require(BtokenContract.balanceOf(msg.sender)>=_numberOfTokens);\n            require(address(this).balance>=SafeMath.mul(_numberOfTokens, tokenPrice));\n            require(BtokenContract.adminTransfer(msg.sender, address(this), _numberOfTokens));\n            msg.sender.transfer(SafeMath.mul(_numberOfTokens,tokenPrice));\n            \n        } else { // state=0 \n            require(false, \"contract still active\");\n        }\n    }\n\n\n    // ChainLink\n\n    function requestState(address _oracle, string memory _jobId)\n        public\n        // onlyOwner\n    {\n        Chainlink.Request memory req = buildChainlinkRequest(stringToBytes32(_jobId), address(this), this.fulfillState.selector);\n        req.add(\"get\", \"https://i1ihiyjpu8.execute-api.us-west-1.amazonaws.com/default/test_api\");\n        req.add(\"path\", \"state\");\n        sendChainlinkRequestTo(_oracle, req, ORACLE_PAYMENT);\n    }\n\n    function fulfillState(bytes32 _requestId, uint256 _state)\n        public\n        recordChainlinkFulfillment(_requestId)\n    {\n        emit RequestStateFulfilled(_requestId, _state);\n        state = _state;\n        // redeemExecute(_token, _numberOfTokens);\n    }\n\n    function cancelRequest(\n        bytes32 _requestId,\n        uint256 _payment,\n        bytes4 _callbackFunctionId,\n        uint256 _expiration\n    )\n        public\n        onlyOwner\n    {\n        cancelChainlinkRequest(_requestId, _payment, _callbackFunctionId, _expiration);\n    }\n\n    function stringToBytes32(string memory source) private pure returns (bytes32 result) {\n        bytes memory tempEmptyStringTest = bytes(source);\n        if (tempEmptyStringTest.length == 0) {\n        return 0x0;\n        }\n\n        assembly { // solhint-disable-line no-inline-assembly\n        result := mload(add(source, 32))\n        }\n    }\n\n}","sourcePath":"contracts/Manager.sol","type":"contract","deployment":{"address":"0x0b2EC7A16c6FAdE959CB70E433739098B153605F","chainid":"4","blockHeight":8377544}}